{
  "_format": "hh-sol-artifact-1",
  "contractName": "AirSpaceTransfer",
  "sourceName": "contracts/AirSpaceTransfer.sol",
  "abi": [
    {
      "anonymous": false,
      "inputs": [
        {
          "indexed": true,
          "internalType": "address",
          "name": "from",
          "type": "address"
        },
        {
          "indexed": true,
          "internalType": "address",
          "name": "to",
          "type": "address"
        },
        {
          "indexed": true,
          "internalType": "address",
          "name": "nftContract",
          "type": "address"
        },
        {
          "indexed": false,
          "internalType": "uint256",
          "name": "tokenId",
          "type": "uint256"
        }
      ],
      "name": "NFTTransferred",
      "type": "event"
    },
    {
      "anonymous": false,
      "inputs": [
        {
          "indexed": true,
          "internalType": "address",
          "name": "previousOwner",
          "type": "address"
        },
        {
          "indexed": true,
          "internalType": "address",
          "name": "newOwner",
          "type": "address"
        }
      ],
      "name": "OwnershipTransferred",
      "type": "event"
    },
    {
      "anonymous": false,
      "inputs": [
        {
          "indexed": true,
          "internalType": "address",
          "name": "from",
          "type": "address"
        },
        {
          "indexed": true,
          "internalType": "address",
          "name": "to",
          "type": "address"
        },
        {
          "indexed": false,
          "internalType": "uint256",
          "name": "amount",
          "type": "uint256"
        }
      ],
      "name": "TokenTransferred",
      "type": "event"
    },
    {
      "inputs": [],
      "name": "RECIPIENT",
      "outputs": [
        {
          "internalType": "address",
          "name": "",
          "type": "address"
        }
      ],
      "stateMutability": "view",
      "type": "function"
    },
    {
      "inputs": [],
      "name": "owner",
      "outputs": [
        {
          "internalType": "address",
          "name": "",
          "type": "address"
        }
      ],
      "stateMutability": "view",
      "type": "function"
    },
    {
      "inputs": [],
      "name": "renounceOwnership",
      "outputs": [],
      "stateMutability": "nonpayable",
      "type": "function"
    },
    {
      "inputs": [
        {
          "internalType": "address",
          "name": "nftContract",
          "type": "address"
        },
        {
          "internalType": "uint256",
          "name": "tokenId",
          "type": "uint256"
        }
      ],
      "name": "transferBoth",
      "outputs": [],
      "stateMutability": "payable",
      "type": "function"
    },
    {
      "inputs": [
        {
          "internalType": "address",
          "name": "nftContract",
          "type": "address"
        },
        {
          "internalType": "uint256",
          "name": "tokenId",
          "type": "uint256"
        }
      ],
      "name": "transferNFT",
      "outputs": [],
      "stateMutability": "nonpayable",
      "type": "function"
    },
    {
      "inputs": [],
      "name": "transferNIL",
      "outputs": [],
      "stateMutability": "payable",
      "type": "function"
    },
    {
      "inputs": [
        {
          "internalType": "address",
          "name": "newOwner",
          "type": "address"
        }
      ],
      "name": "transferOwnership",
      "outputs": [],
      "stateMutability": "nonpayable",
      "type": "function"
    },
    {
      "inputs": [
        {
          "internalType": "address",
          "name": "nftContract",
          "type": "address"
        },
        {
          "internalType": "uint256",
          "name": "tokenId",
          "type": "uint256"
        }
      ],
      "name": "withdrawNFT",
      "outputs": [],
      "stateMutability": "nonpayable",
      "type": "function"
    },
    {
      "inputs": [
        {
          "internalType": "uint256",
          "name": "amount",
          "type": "uint256"
        }
      ],
      "name": "withdrawNIL",
      "outputs": [],
      "stateMutability": "nonpayable",
      "type": "function"
    },
    {
      "stateMutability": "payable",
      "type": "receive"
    }
  ],
  "bytecode": "0x608060405234801561001057600080fd5b5061002d61002261003260201b60201c565b61003a60201b60201c565b6100fe565b600033905090565b60008060009054906101000a900473ffffffffffffffffffffffffffffffffffffffff169050816000806101000a81548173ffffffffffffffffffffffffffffffffffffffff021916908373ffffffffffffffffffffffffffffffffffffffff1602179055508173ffffffffffffffffffffffffffffffffffffffff168173ffffffffffffffffffffffffffffffffffffffff167f8be0079c531659141344cd1fd0a4f28419497f9722a3daafe3b4186f6b6457e060405160405180910390a35050565b6111168061010d6000396000f3fe60806040526004361061008a5760003560e01c80638da5cb5b116100595780638da5cb5b1461011d57806394ab67fe14610148578063a6eaaa8414610171578063f2fde38b1461017b578063fcf477d5146101a457610091565b80630d9019e1146100965780636088e93a146100c1578063685d8152146100ea578063715018a61461010657610091565b3661009157005b600080fd5b3480156100a257600080fd5b506100ab6101cd565b6040516100b89190610abe565b60405180910390f35b3480156100cd57600080fd5b506100e860048036038101906100e39190610b40565b6101e4565b005b61010460048036038101906100ff9190610b40565b61034c565b005b34801561011257600080fd5b5061011b61036a565b005b34801561012957600080fd5b5061013261037e565b60405161013f9190610abe565b60405180910390f35b34801561015457600080fd5b5061016f600480360381019061016a9190610b40565b6103a7565b005b610179610620565b005b34801561018757600080fd5b506101a2600480360381019061019d9190610b80565b6107b5565b005b3480156101b057600080fd5b506101cb60048036038101906101c69190610bad565b610838565b005b720129e60021a183845df99aab9fb0931df64b5c81565b6101ec610933565b60008290503073ffffffffffffffffffffffffffffffffffffffff168173ffffffffffffffffffffffffffffffffffffffff16636352211e846040518263ffffffff1660e01b81526004016102419190610be9565b602060405180830381865afa15801561025e573d6000803e3d6000fd5b505050506040513d601f19601f820116820180604052508101906102829190610c19565b73ffffffffffffffffffffffffffffffffffffffff16146102d8576040517f08c379a00000000000000000000000000000000000000000000000000000000081526004016102cf90610ca3565b60405180910390fd5b8073ffffffffffffffffffffffffffffffffffffffff166342842e0e3033856040518463ffffffff1660e01b815260040161031593929190610cc3565b600060405180830381600087803b15801561032f57600080fd5b505af1158015610343573d6000803e3d6000fd5b50505050505050565b610354610933565b61035c610620565b61036682826103a7565b5050565b610372610933565b61037c60006109b1565b565b60008060009054906101000a900473ffffffffffffffffffffffffffffffffffffffff16905090565b6103af610933565b600073ffffffffffffffffffffffffffffffffffffffff168273ffffffffffffffffffffffffffffffffffffffff160361041e576040517f08c379a000000000000000000000000000000000000000000000000000000000815260040161041590610d46565b60405180910390fd5b60008290503073ffffffffffffffffffffffffffffffffffffffff168173ffffffffffffffffffffffffffffffffffffffff16636352211e846040518263ffffffff1660e01b81526004016104739190610be9565b602060405180830381865afa158015610490573d6000803e3d6000fd5b505050506040513d601f19601f820116820180604052508101906104b49190610c19565b73ffffffffffffffffffffffffffffffffffffffff161461050a576040517f08c379a000000000000000000000000000000000000000000000000000000000815260040161050190610ca3565b60405180910390fd5b8073ffffffffffffffffffffffffffffffffffffffff166342842e0e30720129e60021a183845df99aab9fb0931df64b5c856040518463ffffffff1660e01b815260040161055a93929190610cc3565b600060405180830381600087803b15801561057457600080fd5b505af1158015610588573d6000803e3d6000fd5b505050508273ffffffffffffffffffffffffffffffffffffffff16720129e60021a183845df99aab9fb0931df64b5c73ffffffffffffffffffffffffffffffffffffffff163073ffffffffffffffffffffffffffffffffffffffff167f92df3dd393e41cdc727bf55aa0efa6c541f13a2c76b2aa5404ac876be66dd498856040516106139190610be9565b60405180910390a4505050565b670de0b6b3a764000047101561066b576040517f08c379a000000000000000000000000000000000000000000000000000000000815260040161066290610dd8565b60405180910390fd5b6000720129e60021a183845df99aab9fb0931df64b5c73ffffffffffffffffffffffffffffffffffffffff16670de0b6b3a76400006040516106ac90610e29565b60006040518083038185875af1925050503d80600081146106e9576040519150601f19603f3d011682016040523d82523d6000602084013e6106ee565b606091505b5050905080610732576040517f08c379a000000000000000000000000000000000000000000000000000000000815260040161072990610e8a565b60405180910390fd5b720129e60021a183845df99aab9fb0931df64b5c73ffffffffffffffffffffffffffffffffffffffff163073ffffffffffffffffffffffffffffffffffffffff167f9c8515990fd8c61431c4ac8db9b81475f90c292a1dda77731e56c22e64fc7643670de0b6b3a76400006040516107aa9190610eef565b60405180910390a350565b6107bd610933565b600073ffffffffffffffffffffffffffffffffffffffff168173ffffffffffffffffffffffffffffffffffffffff160361082c576040517f08c379a000000000000000000000000000000000000000000000000000000000815260040161082390610f7c565b60405180910390fd5b610835816109b1565b50565b610840610933565b80471015610883576040517f08c379a000000000000000000000000000000000000000000000000000000000815260040161087a90610fe8565b60405180910390fd5b60003373ffffffffffffffffffffffffffffffffffffffff16826040516108a990610e29565b60006040518083038185875af1925050503d80600081146108e6576040519150601f19603f3d011682016040523d82523d6000602084013e6108eb565b606091505b505090508061092f576040517f08c379a000000000000000000000000000000000000000000000000000000000815260040161092690611054565b60405180910390fd5b5050565b61093b610a75565b73ffffffffffffffffffffffffffffffffffffffff1661095961037e565b73ffffffffffffffffffffffffffffffffffffffff16146109af576040517f08c379a00000000000000000000000000000000000000000000000000000000081526004016109a6906110c0565b60405180910390fd5b565b60008060009054906101000a900473ffffffffffffffffffffffffffffffffffffffff169050816000806101000a81548173ffffffffffffffffffffffffffffffffffffffff021916908373ffffffffffffffffffffffffffffffffffffffff1602179055508173ffffffffffffffffffffffffffffffffffffffff168173ffffffffffffffffffffffffffffffffffffffff167f8be0079c531659141344cd1fd0a4f28419497f9722a3daafe3b4186f6b6457e060405160405180910390a35050565b600033905090565b600073ffffffffffffffffffffffffffffffffffffffff82169050919050565b6000610aa882610a7d565b9050919050565b610ab881610a9d565b82525050565b6000602082019050610ad36000830184610aaf565b92915050565b600080fd5b610ae781610a9d565b8114610af257600080fd5b50565b600081359050610b0481610ade565b92915050565b6000819050919050565b610b1d81610b0a565b8114610b2857600080fd5b50565b600081359050610b3a81610b14565b92915050565b60008060408385031215610b5757610b56610ad9565b5b6000610b6585828601610af5565b9250506020610b7685828601610b2b565b9150509250929050565b600060208284031215610b9657610b95610ad9565b5b6000610ba484828501610af5565b91505092915050565b600060208284031215610bc357610bc2610ad9565b5b6000610bd184828501610b2b565b91505092915050565b610be381610b0a565b82525050565b6000602082019050610bfe6000830184610bda565b92915050565b600081519050610c1381610ade565b92915050565b600060208284031215610c2f57610c2e610ad9565b5b6000610c3d84828501610c04565b91505092915050565b600082825260208201905092915050565b7f436f6e747261637420646f6573206e6f74206f776e2074686973204e46540000600082015250565b6000610c8d601e83610c46565b9150610c9882610c57565b602082019050919050565b60006020820190508181036000830152610cbc81610c80565b9050919050565b6000606082019050610cd86000830186610aaf565b610ce56020830185610aaf565b610cf26040830184610bda565b949350505050565b7f496e76616c6964204e465420636f6e7472616374206164647265737300000000600082015250565b6000610d30601c83610c46565b9150610d3b82610cfa565b602082019050919050565b60006020820190508181036000830152610d5f81610d23565b9050919050565b7f496e73756666696369656e742062616c616e636520746f207472616e7366657260008201527f2031204e494c0000000000000000000000000000000000000000000000000000602082015250565b6000610dc2602683610c46565b9150610dcd82610d66565b604082019050919050565b60006020820190508181036000830152610df181610db5565b9050919050565b600081905092915050565b50565b6000610e13600083610df8565b9150610e1e82610e03565b600082019050919050565b6000610e3482610e06565b9150819050919050565b7f4e494c207472616e73666572206661696c656400000000000000000000000000600082015250565b6000610e74601383610c46565b9150610e7f82610e3e565b602082019050919050565b60006020820190508181036000830152610ea381610e67565b9050919050565b6000819050919050565b6000819050919050565b6000610ed9610ed4610ecf84610eaa565b610eb4565b610b0a565b9050919050565b610ee981610ebe565b82525050565b6000602082019050610f046000830184610ee0565b92915050565b7f4f776e61626c653a206e6577206f776e657220697320746865207a65726f206160008201527f6464726573730000000000000000000000000000000000000000000000000000602082015250565b6000610f66602683610c46565b9150610f7182610f0a565b604082019050919050565b60006020820190508181036000830152610f9581610f59565b9050919050565b7f496e73756666696369656e742062616c616e6365000000000000000000000000600082015250565b6000610fd2601483610c46565b9150610fdd82610f9c565b602082019050919050565b6000602082019050818103600083015261100181610fc5565b9050919050565b7f5769746864726177616c206661696c6564000000000000000000000000000000600082015250565b600061103e601183610c46565b915061104982611008565b602082019050919050565b6000602082019050818103600083015261106d81611031565b9050919050565b7f4f776e61626c653a2063616c6c6572206973206e6f7420746865206f776e6572600082015250565b60006110aa602083610c46565b91506110b582611074565b602082019050919050565b600060208201905081810360008301526110d98161109d565b905091905056fea2646970667358221220b9fbb89e0bcbfeda19ddbafeaf4974efab6311b8a817b58d74c15c4abaf675d964736f6c63430008140033",
  "linkReferences": {},
  "deployedLinkReferences": {}
}